S00D00004156525F312E737265639E
S11300000C942A000C943A020C9463020C946A0235
S11300100C9437030C940E030C9447000C94470083
S11300200C9447000C9447000C94BC020C94E50219
S11300300C9447000C9460030C94B2030C94890351
S11300400C9493020C9447000C9447000C944700C2
S11300500C94470011241FBECFE5D8E0DEBFCDBF0E
S113006010E0A0E6B0E0EEECFDE002C005900D92D9
S1130070A238B107D9F720E0A2E8B0E001C01D9290
S1130080A53AB207E1F70E9404010C94E5060C942A
S113009000000F931F9382E08093990010929A00BE
S11300A010929B0080E895E2A0E0B0E08093A0006D
S11300B09093A100A093A200B093A30010929C007F
S11300C083E080939D0010929E000E94DB030091C8
S11300D060001091610020916200309163004091B2
S11300E06400509165006091660070916700809192
S11300F06800909169000E9409012FEF82E597E062
S1130100215080409040E1F700C000008AE790E071
S11301100E94E2041F910F9108950F931F932FEFF4
S113012082E597E0215080409040E1F700C0000054
S11301300091600010916100209162003091630091
S11301404091640050916500609166007091670071
S113015080916800909169000E94530180939800F7
S11301602FEF80E792E0215080409040E1F700C0FB
S11301700000809198008F3FD9F290E00E94D20451
S1130180809198008B32E9F52FEF81EE94E02150B5
S113019080409040E1F700C000008091980090E01A
S11301A00E94D2042FEF82E597E0215080409040D6
S11301B0E1F700C0000000916000109161002091FF
S11301C06200309163004091640050916500609139
S11301D066007091670080916800909169000E94A8
S11301E05301809398002FEF82E597E021508040DF
S11301F09040E1F700C000008091980090E00E94D8
S1130200D2041F910F9108950E9449000E948D000D
S1130210FDCF0F931F93CF93DF93CDB7DEB72A970C
S11302200FB6F894DEBF0FBECDBF09831A833C839B
S11302304D835E836F83788789879A8709811A81C2
S113024040E0622FC8010E94C70140E06C81C801F0
S11302500E94C70140E06D81C8010E94C70140E0CF
S11302606E81C8010E94C70142E06F81C8010E94EB
S1130270C70142E06885C8010E94C70142E0698560
S1130280C8010E94C70142E06A85C8010E94C701F3
S11302902A960FB6F894DEBF0FBECDBFDF91CF9183
S11302A01F910F910895CF92DF92EF92FF920F93D7
S11302B01F93CF93DF93CDB7DEB76A970FB6F89449
S11302C0DEBF0FBECDBF098B1A8B2B8B3C8B4D8BA6
S11302D05E8B6F8B788F898F9A8F09891A8980E159
S11302E0EAE6F0E0DE01119601900D928A95E1F7BD
S11302F0E12CF12CCC24CA9441E06B89C8010E9402
S1130300040241E06C89C8010E94040241E06D8945
S1130310C8010E94040241E06E89C8010E940402DF
S113032040E06E2DC8010E940402D12C64E06D0DE2
S1130330C8010E94270281110FC0F701EE0FFF1FB1
S1130340EE0FFF1FED0DF11D81E090E08C0F9D1F5E
S1130350E80FF91FC08004C0D39494E0D912E6CF0B
S11303608FEFE81AF80A94E0E916F10429F68C2DC7
S11303706A960FB6F894DEBF0FBECDBFDF91CF9162
S11303801F910F91FF90EF90DF90CF900895FC01A3
S1130390413021F038F1423099F00895218181E013
S11303A090E0AC0102C0440F551F6A95E2F7BA0110
S11303B06095862F822381838281682362830895D6
S11303C0218181E090E0AC0102C0440F551F6A9581
S11303D0E2F7BA01842F8095822381838281682B7E
S11303E062830895218181E090E0AC0102C0440F52
S11303F0551F6A95E2F7BA01822F842B818382818B
S11304006095682362830895442389F04130F1F4B0
S1130410FC01428121E030E0F90102C0EE0FFF1F30
S11304206A95E2F7BF01642BFC0162830895FC0125
S1130430428121E030E0F90102C0EE0FFF1F6A950E
S1130440E2F7BF0160956423FC0162830895FC0117
S1130450208181E090E0062E02C0880F991F0A9443
S1130460E2F730E08223932302C0959587956A953D
S1130470E2F708951F920F920FB60F9211242F9353
S11304803F934F935F936F937F938F939F93AF9318
S1130490BF93EF93FF93E0918800F0918900309728
S11304A009F00995FF91EF91BF91AF919F918F91C1
S11304B07F916F915F914F913F912F910F900FBE5C
S11304C00F901F901895E0918600F0918700309767
S11304D009F009951F920F920FB60F9211242F93D2
S11304E03F934F935F936F937F938F939F93AF93B8
S11304F0BF93EF93FF93E0918400F09185003097D0
S113050009F00995FF91EF91BF91AF919F918F9160
S11305107F916F915F914F913F912F910F900FBEFB
S11305200F901F9018951F920F920FB60F921124DF
S11305302F933F934F935F936F937F938F939F93E7
S1130540AF93BF93EF93FF93E0918200F091830008
S1130550309709F00995FF91EF91BF91AF919F9169
S11305608F917F916F915F914F913F912F910F9058
S11305700FBE0F901F9018951F920F920FB60F92F7
S113058011242F933F934F935F936F937F938F9394
S11305909F93AF93BF93EF93FF93E0918E00F091FD
S11305A08F00309709F00995FF91EF91BF91AF91BA
S11305B09F918F917F916F915F914F913F912F9177
S11305C00F900FBE0F901F9018951F920F920FB6A9
S11305D00F9211242F933F934F935F936F937F93C5
S11305E08F939F93AF93BF93EF93FF93E09190000A
S11305F0F0919100309709F00995FF91EF91BF9127
S1130600AF919F918F917F916F915F914F913F91A6
S11306102F910F900FBE0F901F9018951F920F925D
S11306200FB60F9211242F933F934F935F936F93C1
S11306307F938F939F93AF93BF93EF93FF93E09137
S11306408C00F0918D00309709F00995FF91EF919E
S1130650BF91AF919F918F917F916F915F914F91D6
S11306603F912F910F900FBE0F901F9018951F92DE
S11306700F920FB60F9211242F933F934F935F93D2
S11306806F937F938F939F93AF93BF93EF93FF9356
S1130690E0918A00F0918B00309709F00995FF9161
S11306A0EF91BF91AF919F918F917F916F915F91E6
S11306B04F913F912F910F900FBE0F901F9018955F
S11306C01F920F920FB60F9211242F933F934F93C3
S11306D05F936F937F938F939F93AF93BF93EF93A6
S11306E0FF93E0919600F0919700309709F00995F7
S11306F0FF91EF91BF91AF919F918F917F916F91F6
S11307005F914F913F912F910F900FBE0F901F90CB
S113071018951F920F920FB60F9211242F933F93A7
S11307204F935F936F937F938F939F93AF93BF93F5
S1130730EF93FF93E0919400F0919500309709F0C6
S11307400995FF91EF91BF91AF919F918F917F9107
S11307506F915F914F913F912F910F900FBE0F902A
S11307601F9018951F920F920FB60F9211242F937A
S11307703F934F935F936F937F938F939F93AF9325
S1130780BF93EF93FF93E0919200F0919300309721
S113079009F00995FF91EF91BF91AF919F918F91CE
S11307A07F916F915F914F913F912F910F900FBE69
S11307B00F901F9018951F93CF93DF93809199000A
S11307C0823031F0833031F0813031F0C0E005C047
S11307D0C8E003C0C8E101C0C0E180919A00813043
S11307E031F120F0823009F443C065C06091A0006B
S11307F07091A1008091A2009091A3000E94F40541
S113080020E030E040E851E40E9482069B01AC0104
S113081060E074E284EF9AE40E94600520E030E036
S113082040E05FE30E94FB04D0E010E04CC0609124
S1130830A0007091A1008091A2009091A3000E9459
S1130840F40520E030E040E051E40E9482069B0180
S1130850AC0160E074E284EF9AE40E94600520E059
S113086030E040E05FE30E94FB04D0E012E02BC0E4
S11308706091A0007091A1008091A2009091A300CA
S11308800E94F4059B01AC010E94FC049B01AC0195
S113089060E074E284EF9AE40E94600520E030E0B6
S11308A040E05FE30E94FB0420919F00213049F067
S11308B0D0E410E008C060E070E0CB01D0E010E0CC
S11308C002C0D1E410E020919B00222319F02130D2
S11308D019F003C01E7F01C0116020919C002330D9
S11308E089F028F4213051F0223051F012C0263022
S11308F069F0273069F0253061F406C0C06809C08A
S1130900C06407C0C06205C0C06A03C0C06601C03D
S1130910C06E20919D00223091F028F4222341F0F2
S1130920213049F015C0233071F0243079F010C023
S1130930CB7FD97F0DC0CB7FDB7FD26009C0CB7F5B
S1130940DD7FD46005C0CB7FD66002C0C460D660B2
S113095020919E00223089F028F4222349F021308E
S113096049F015C0243079F058F0253079F00FC0E3
S1130970D77C0DC0DF7CD8600AC0D77ED06207C0A8
S1130980DF7ED86204C0D77FD06301C0D8630E94E1
S1130990C80570BD69B91BB9D0BDCAB9DF91CF9183
S11309A01F9108955D9BFECF20919D00243041F45A
S11309B04AB14E7F9C0122273170242F232B2AB960
S11309C08CB90895CF93DF93EC018881882381F05B
S11309D0219690E00E94D2042FEF80E792E021500C
S11309E080409040E1F700C0000089918111F1CF6F
S11309F0DF91CF9108955058BB27AA270ED048C144
S1130A0039D130F03ED120F031F49F3F11F41EF47F
S1130A102EC10EF4E095E7FB24C1E92F4AD180F3FF
S1130A20BA17620773078407950718F071F49EF5E7
S1130A3062C10EF4E0950B2EBA2FA02D0B01B90163
S1130A4090010C01CA01A0011124FF27591B99F040
S1130A50593F50F4503E68F11A16F040A22F232F4C
S1130A60342F4427585FF3CF469537952795A7959C
S1130A70F0405395C9F77EF41F16BA0B620B730B43
S1130A80840BBAF09150A1F0FF0FBB1F661F771FB4
S1130A90881FC2F70EC0BA0F621F731F841F48F469
S1130AA0879577956795B795F7959E3F08F0B3CFEF
S1130AB09395880F08F09927EE0F979587950895D9
S1130AC00CD0E6C0DED040F0D5D030F021F45F3F4A
S1130AD019F0C7C0511110C1CAC0EBD098F39923C3
S1130AE0C9F35523B1F3951B550BBB27AA276217EE
S1130AF07307840738F09F5F5F4F220F331F441F33
S1130B00AA1FA9F333D00E2E3AF0E0E830D091506A
S1130B105040E695001CCAF729D0FE2F27D0660F57
S1130B20771F881FBB1F261737074807AB07B0E896
S1130B3009F0BB0B802DBF01FF2793585F4F2AF0AC
S1130B409E3F510568F08DC0D7C05F3FECF3983EDF
S1130B50DCF3869577956795B795F7959F5FC9F709
S1130B60880F911D9695879597F90895E1E0660F92
S1130B70771F881FBB1F621773078407BA0720F00B
S1130B80621B730B840BBA0BEE1F88F7E095089574
S1130B9098D088F09F5790F0B92F9927B751A0F0BB
S1130BA0D1F0660F771F881F991F1AF0BA95C9F7FD
S1130BB012C0B13081F09FD0B1E008959CC0672F7E
S1130BC0782F8827B85F39F0B93FCCF386957795AD
S1130BD06795B395D9F73EF4909580957095619596
S1130BE07F4F8F4F9F4F0895E89409C097FB3EF4C1
S1130BF090958095709561957F4F8F4F9F4F992366
S1130C00A9F0F92F96E9BB279395F69587957795E3
S1130C106795B795F111F8CFFAF4BB0F11F460FFA3
S1130C201BC06F5F7F4F8F4F9F4F16C0882311F0FB
S1130C3096E911C0772321F09EE8872F762F05C00F
S1130C40662371F096E8862F70E060E02AF09A95AA
S1130C50660F771F881FDAF7880F9695879597F99F
S1130C60089597F99F6780E870E060E008959FEF2A
S1130C7080EC089500240A9416161706180609062F
S1130C80089500240A9412161306140605060895FE
S1130C90092E0394000C11F4882352F0BB0F40F486
S1130CA0BF2B11F460FF04C06F5F7F4F8F4F9F4FC6
S1130CB0089557FD9058440F551F59F05F3F71F048
S1130CC04795880F97FB991F61F09F3F79F08795AF
S1130CD00895121613061406551FF2CF4695F1DF38
S1130CE008C0161617061806991FF1CF86957105C8
S1130CF0610508940895E894BB2766277727CB01FC
S1130D0097F908950BD0C4CFB5DF28F0BADF18F0F7
S1130D10952309F0A6CFABCF1124EECFCADFA0F301
S1130D20959FD1F3950F50E0551F629FF001729F7C
S1130D30BB27F00DB11D639FAA27F00DB11DAA1F9B
S1130D40649F6627B00DA11D661F829F2227B00DE8
S1130D50A11D621F739FB00DA11D621F839FA00D73
S1130D60611D221F749F3327A00D611D231F849FC3
S1130D70600D211D822F762F6A2F11249F5750401A
S1130D808AF0E1F088234AF0EE0FFF1FBB1F661FB5
S1130D90771F881F91505040A9F79E3F510570F06E
S1130DA060CFAACF5F3FECF3983EDCF3869577954E
S1130DB06795B795F795E7959F5FC1F7FE2B880F69
S1110DC0911D9695879597F90895F894FFCFA5
S1130DCE390000010203040506073738392F34357C
S1130DDE362A3132332D23303D2B57656C636F6DBC
S1050DEE65009A
S9030000FC
