:100000000C942A000C949C010C94C5010C94CC0116
:100010000C943C000C943C000C943C000C943C0070
:100020000C943C000C943C000C943C000C943C0060
:100030000C943C000C941E020C9470020C94470229
:100040000C94F5010C943C000C943C000C943C0086
:100050000C943C0011241FBECFE5D8E0DEBFCDBF1D
:1000600020E0A0E6B0E001C01D92AA37B207E1F798
:100070000E9462000C94AA050C94000081E0809319
:1000800068001092690010926A0080E895E2A0E092
:10009000B0E080936F0090937000A0937100B093D4
:1000A000720010926B0083E080936C0010926D00E0
:1000B0000E9499020E94A40008950E9490030E9449
:1000C000F000FBCF0E943E000E945D00FFCF41E0A8
:1000D00062E086E390E00E9451018FE99FE0019782
:1000E000F1F700C0000040E062E086E390E00E948B
:1000F00051018FE99FE00197F1F700C000000895DA
:10010000CF93C82F682F82E40E94770140E060E01F
:1001100086E390E00E9451010E9467006C2F629577
:10012000607F82E40E94770140E060E086E390E037
:100130000E9451010E9467008FEC97E00197F1F750
:1001400000C00000CF9108952FEF81EE94E0215080
:1001500080409040E1F700C0000060EF86E390E04F
:100160000E94740140E060E086E390E00E94140188
:1001700040E062E086E390E00E94140140E061E02C
:1001800086E390E00E941401A9988FEC97E0019714
:10019000F1F700C0000082E00E9480008FEC97E041
:1001A0000197F1F700C0000088E20E9480008FEC08
:1001B00097E00197F1F700C000008EE00E948000F8
:1001C0008FEC97E00197F1F700C0000081E00E94FA
:1001D00080008FE19EE40197F1F700C000000895D0
:1001E000CF93C82F682F82E40E94770141E060E03E
:1001F00086E390E00E9451010E9467006C2F629597
:10020000607F82E40E94770141E060E086E390E055
:100210000E9451010E9467008FEC97E00197F1F76F
:1002200000C00000CF910895FC01413021F038F169
:10023000423099F00895218181E090E0AC0102C044
:10024000440F551F6A95E2F7BA016095862F822305
:1002500081838281682362830895218181E090E017
:10026000AC0102C0440F551F6A95E2F7BA01842F12
:100270008095822381838281682B62830895218106
:1002800081E090E0AC0102C0440F551F6A95E2F78F
:10029000BA01822F842B81838281609568236283D7
:1002A0000895442389F04130F1F4FC01428121E0BA
:1002B00030E0F90102C0EE0FFF1F6A95E2F7BF01BF
:1002C000642BFC0162830895FC01428121E030E04F
:1002D000F90102C0EE0FFF1F6A95E2F7BF016095BA
:1002E0006423FC0162830895FC0161830895607FAB
:1002F000823479F018F4813431F00895833479F040
:10030000843499F008958BB38F708BBB8BB3862B9D
:100310008BBB88B38F7088BB88B3862B88BB85B3B3
:100320008F7085BB85B3862B85BB82B38F7082BBF4
:1003300082B3682B62BB08951F920F920FB60F9283
:1003400011242F933F934F935F936F937F938F93DA
:100350009F93AF93BF93EF93FF93E0916600F0916B
:100360006700309709F00995FF91EF91BF91AF9128
:100370009F918F917F916F915F914F913F912F91BD
:100380000F900FBE0F901F901895E0916400F091B0
:100390006500309709F009951F920F920FB60F92E2
:1003A00011242F933F934F935F936F937F938F937A
:1003B0009F93AF93BF93EF93FF93E0916200F0910F
:1003C0006300309709F00995FF91EF91BF91AF91CC
:1003D0009F918F917F916F915F914F913F912F915D
:1003E0000F900FBE0F901F9018951F920F920FB68F
:1003F0000F9211242F933F934F935F936F937F93AB
:100400008F939F93AF93BF93EF93FF93E09160001F
:10041000F0916100309709F00995FF91EF91BF913C
:10042000AF919F918F917F916F915F914F913F918C
:100430002F910F900FBE0F901F9018951F920F9243
:100440000FB60F9211242F933F934F935F936F93A7
:100450007F938F939F93AF93BF93EF93FF93E0911D
:100460007800F0917900309709F00995FF91EF91AC
:10047000BF91AF919F918F917F916F915F914F91BC
:100480003F912F910F900FBE0F901F9018951F92C4
:100490000F920FB60F9211242F933F934F935F93B8
:1004A0006F937F938F939F93AF93BF93EF93FF933C
:1004B000E0917600F0917700309709F00995FF916F
:1004C000EF91BF91AF919F918F917F916F915F91CC
:1004D0004F913F912F910F900FBE0F901F90189545
:1004E0001F920F920FB60F9211242F933F934F93A9
:1004F0005F936F937F938F939F93AF93BF93EF938C
:10050000FF93E0917400F0917500309709F0099520
:10051000FF91EF91BF91AF919F918F917F916F91DB
:100520005F914F913F912F910F900FBE0F901F90B1
:1005300018951F93CF93DF9380916800823031F03C
:10054000833031F0813031F0C0E005C0C8E003C035
:10055000C8E101C0C0E180916900813031F120F033
:10056000823009F443C065C060916F0070917000E3
:1005700080917100909172000E94B90420E030E0F7
:1005800040E851E40E9447059B01AC0160E074E241
:1005900084EF9AE40E94250420E030E040E05FE32D
:1005A0000E94C003D0E010E04CC060916F007091D9
:1005B000700080917100909172000E94B90420E057
:1005C00030E040E051E40E9447059B01AC0160E04F
:1005D00074E284EF9AE40E94250420E030E040E0D9
:1005E0005FE30E94C003D0E012E02BC060916F0077
:1005F0007091700080917100909172000E94B90416
:100600009B01AC010E94C1039B01AC0160E074E25C
:1006100084EF9AE40E94250420E030E040E05FE3AC
:100620000E94C00320916E00213049F0D0E410E018
:1006300008C060E070E0CB01D0E010E002C0D1E47F
:1006400010E020916A00222319F0213019F003C034
:100650001E7F01C0116020916B00233089F028F4C7
:10066000213051F0223051F012C0263069F027308D
:1006700069F0253061F406C0C06809C0C06407C0D5
:10068000C06205C0C06A03C0C06601C0C06E2091D0
:100690006C00223091F028F4222341F0213049F0FF
:1006A00015C0233071F0243079F010C0CB7FD97F92
:1006B0000DC0CB7FDB7FD26009C0CB7FDD7FD460F4
:1006C00005C0CB7FD66002C0C460D66020916D00AB
:1006D000223089F028F4222349F0213049F015C056
:1006E000243079F058F0253079F00FC0D77C0DC058
:1006F000DF7CD8600AC0D77ED06207C0DF7ED862B8
:1007000004C0D77FD06301C0D8630E948D0470BD40
:1007100069B91BB9D0BDCAB9DF91CF911F910895B6
:100720005F9BFECF7BB1EBB16BB1E3FB442740F99C
:1007300050E074FB222720F930E0242B352B62FB9C
:10074000882780F990E0822B932B892B89F05C9B82
:1007500004C083E0809373000BC05B9B04C082E005
:100760008093730005C05A9B03C081E0809373009F
:1007700080916C00843009F48AB18CB190E00895C6
:100780005058BB27AA270ED048C139D130F03ED1EE
:1007900020F031F49F3F11F41EF42EC10EF4E095C9
:1007A000E7FB24C1E92F4AD180F3BA176207730728
:1007B0008407950718F071F49EF562C10EF4E09578
:1007C0000B2EBA2FA02D0B01B90190010C01CA010B
:1007D000A0011124FF27591B99F0593F50F4503EB6
:1007E00068F11A16F040A22F232F342F4427585FA8
:1007F000F3CF469537952795A795F0405395C9F7C0
:100800007EF41F16BA0B620B730B840BBAF0915077
:10081000A1F0FF0FBB1F661F771F881FC2F70EC016
:10082000BA0F621F731F841F48F4879577956795E9
:10083000B795F7959E3F08F0B3CF9395880F08F0D2
:100840009927EE0F9795879508950CD0E6C0DED0D6
:1008500040F0D5D030F021F45F3F19F0C7C05111FE
:1008600010C1CAC0EBD098F39923C9F35523B1F353
:10087000951B550BBB27AA2762177307840738F00F
:100880009F5F5F4F220F331F441FAA1FA9F333D06E
:100890000E2E3AF0E0E830D091505040E695001C22
:1008A000CAF729D0FE2F27D0660F771F881FBB1FDE
:1008B000261737074807AB07B0E809F0BB0B802DB8
:1008C000BF01FF2793585F4F2AF09E3F510568F004
:1008D0008DC0D7C05F3FECF3983EDCF386957795EB
:1008E0006795B795F7959F5FC9F7880F911D969506
:1008F000879597F90895E1E0660F771F881FBB1F62
:10090000621773078407BA0720F0621B730B840B0E
:10091000BA0BEE1F88F7E095089598D088F09F579E
:1009200090F0B92F9927B751A0F0D1F0660F771F3B
:10093000881F991F1AF0BA95C9F712C0B13081F01B
:100940009FD0B1E008959CC0672F782F8827B85FAB
:1009500039F0B93FCCF3869577956795B395D9F77C
:100960003EF490958095709561957F4F8F4F9F4F86
:100970000895E89409C097FB3EF490958095709592
:1009800061957F4F8F4F9F4F9923A9F0F92F96E9DB
:10099000BB279395F695879577956795B795F11150
:1009A000F8CFFAF4BB0F11F460FF1BC06F5F7F4FED
:1009B0008F4F9F4F16C0882311F096E911C07723FF
:1009C00021F09EE8872F762F05C0662371F096E808
:1009D000862F70E060E02AF09A95660F771F881FD7
:1009E000DAF7880F9695879597F9089597F99F6795
:1009F00080E870E060E008959FEF80EC08950024A7
:100A00000A941616170618060906089500240A9473
:100A100012161306140605060895092E0394000CF9
:100A200011F4882352F0BB0F40F4BF2B11F460FF88
:100A300004C06F5F7F4F8F4F9F4F089557FD9058B1
:100A4000440F551F59F05F3F71F04795880F97FB92
:100A5000991F61F09F3F79F087950895121613064C
:100A60001406551FF2CF4695F1DF08C0161617067B
:100A70001806991FF1CF86957105610508940895B0
:100A8000E894BB2766277727CB0197F908950BD009
:100A9000C4CFB5DF28F0BADF18F0952309F0A6CF50
:100AA000ABCF1124EECFCADFA0F3959FD1F3950F02
:100AB00050E0551F629FF001729FBB27F00DB11DE2
:100AC000639FAA27F00DB11DAA1F649F6627B00D72
:100AD000A11D661F829F2227B00DA11D621F739F5B
:100AE000B00DA11D621F839FA00D611D221F749F69
:100AF0003327A00D611D231F849F600D211D822FB0
:100B0000762F6A2F11249F5750408AF0E1F08823F6
:100B10004AF0EE0FFF1FBB1F661F771F881F915003
:100B20005040A9F79E3F510570F060CFAACF5F3FBC
:100B3000ECF3983EDCF3869577956795B795F79536
:100B4000E7959F5FC1F7FE2B880F911D96958795BE
:080B500097F90895F894FFCF16
:00000001FF
